:100000000C942A000C9447000C94C1020C94FA0240
:100010000C9447000C9447000C9447000C94470044
:100020000C9447000C9447000C9447000C94470034
:100030000C9447000C9447000C9447000C94470024
:100040000C9447000C9447000C9447000C94470014
:100050000C94470011241FBECFE5D4E0DEBFCDBF16
:1000600010E0A0E6B0E0EEEDF2E102C005900D92E6
:10007000A43AB107D9F711E0A4EAB0E001C01D929B
:10008000A534B107E1F70E942D060C946D090C947C
:1000900000001F93CF93DF93EC0180ED0E94920844
:1000A00080E00E94B90888811AE0612F0E94D4087C
:1000B0008295807F892B8F770E94B9088981612F73
:1000C0000E94D4088295807F892B0E94B9088A817A
:1000D000612F0E94D4088295807F892B0E94B908E5
:1000E0008B81612F0E94D4088295807F892B0E948A
:1000F000B9088C81612F0E94D4088295807F892B5A
:100100000E94B9088D81612F0E94D4088295807F5A
:10011000892B0E94B9088E81612F0E94D408829594
:10012000807F892B0E94B9080E94B30881E0DF918B
:10013000CF911F910895CF93DF93EC0180ED0E9442
:10014000920880E00E94B90881ED0E94B0080E94E8
:10015000C608282F30E02F7744E0359527954A953B
:10016000E1F7220F922F990F990F920F8F70980F2E
:1001700098830E94C608282F22952F70220F922F55
:10018000990F990F920F8F70980F99830E94C6084C
:10019000282F30E0482F4F7086FF12C0C9018F71A1
:1001A000907034E0959587953A95E1F7880F982FF0
:1001B000990F990F980F940F25FF0AC0945F08C0FC
:1001C00082958F70880F982F990F990F980F940F21
:1001D0009A830E94C608282F22952F70220F922FF3
:1001E000990F990F920F8F70980F9B830E94C608EA
:1001F000282F22952F70220F922F990F990F920F6F
:100200008F70980F9C830E94C608282F22952F700C
:10021000220F922F990F990F920F8F70980F9D8335
:100220000E94CD08282F22952F70220F922F990F10
:10023000990F920F8F70980F9E830E94B30881E0F0
:10024000DF91CF910895CF92DF92EF92FF920F93BB
:100250001F93DF93CF93CDB7DEB72A970FB6F894ED
:10026000DEBF0FBECDBF8C0154E0C52ED12CCC0E0D
:10027000DD1EC6010E949B007E010894E11CF11C5A
:1002800083E0F70111928A95E9F7F801808189836B
:1002900081818A83C7010E94E0088E83F8018381EF
:1002A000898384818A83C7010E94E0088D83F801D5
:1002B0008681898387818A83C7010E94E0088C83B5
:1002C000C6010E9449002A960FB6F894DEBF0FBE01
:1002D000CDBFCF91DF911F910F91FF90EF90DF90F5
:1002E000CF900895CF92DF92EF92FF920F931F93DA
:1002F000DF93CF93CDB7DEB72A970FB6F894DEBF62
:100300000FBECDBF8C0164E0C62ED12CCC0EDD1EFD
:10031000C6010E949B007E010894E11CF11C83E051
:10032000F70111928A95E9F7F8018081898381812B
:100330008A83C7010E94E0088887F8018381898346
:1003400084818A83C7010E94E0088987F80180853B
:10035000898381858A83C7010E94E0088A87C60154
:100360000E9449002A960FB6F894DEBF0FBECDBF9B
:10037000CF91DF911F910F91FF90EF90DF90CF9081
:100380000895FF920F931F93DF93CF93CDB7DEB7FE
:100390002A970FB6F894DEBF0FBECDBF04EB10E076
:1003A0008BE0F80111928A95E9F7CE0104960E943C
:1003B0009B00FE80FF2DFA3028F4C80160E670E053
:1003C0000E94FE088F2D90E08E010F5F1F4FB80135
:1003D0004AE050E00E94200984EB90E0B80142E03E
:1003E00050E00E94100984EB90E062E670E00E9409
:1003F000FE080D810A3030F484EB90E060E670E096
:100400000E94FE08802F90E08E010F5F1F4FB80101
:100410004AE050E00E94200984EB90E0B80142E0FD
:1004200050E00E94100984EB90E062E670E00E94C8
:10043000FE080C810A3030F484EB90E060E670E056
:100440000E94FE08802F90E08E010F5F1F4FB801C1
:100450004AE050E00E94200984EB90E0B80142E0BD
:1004600050E00E94100984EB90E02A960FB6F894B1
:10047000DEBF0FBECDBFCF91DF911F910F91FF90D7
:100480000895FF920F931F93DF93CF93CDB7DEB7FD
:100490002A970FB6F894DEBF0FBECDBF09EA10E071
:1004A0008BE0F80111928A95E9F7CE0104960E943B
:1004B0009B00F884FF2DFA3028F4C80160E670E054
:1004C0000E94FE088F2D90E08E010F5F1F4FB80134
:1004D0004AE050E00E94200989EA90E0B80142E039
:1004E00050E00E94100989EA90E064E670E00E9402
:1004F000FE0809850A3030F489EA90E060E670E091
:100500000E94FE08802F90E08E010F5F1F4FB80100
:100510004AE050E00E94200989EA90E0B80142E0F8
:1005200050E00E94100989EA90E066E670E00E94BF
:10053000FE080A850A3030F489EA90E060E670E04F
:100540000E94FE08802F90E08E010F5F1F4FB801C0
:100550004AE050E00E94200989EA90E0B80142E0B8
:1005600050E00E94100989EA90E02A960FB6F894AC
:10057000DEBF0FBECDBFCF91DF911F910F91FF90D6
:1005800008951F920F920FB60F9211248F939F938D
:10059000AF93BF938091400182608093400180912E
:1005A000A4009091A500A091A600B091A70080930F
:1005B000160190931701A0931801B093190180912F
:1005C000A4009091A500A091A600B091A7008093EF
:1005D000410190934201A0934301B09344011092D2
:1005E000A800BF91AF919F918F910F900FBE0F9078
:1005F0001F9018951F920F920FB60F9211248F9390
:100600009F93AF93BF938091A4009091A500A09178
:10061000A600B091A7000196A11DB11D8093A40072
:100620009093A500A093A600B093A700BF91AF91AF
:100630009F918F910F900FBE0F901F901895209152
:10064000A4003091A5004091A6005091A700B901E7
:10065000CA01089589E391E00E9449000895EEEEF1
:10066000F0E080E09191913009F48F5F90E0E53FF8
:10067000F907C1F781709091F500891721F48091F5
:100680004001806103C0809140018F7E80934001D2
:10069000E6EFF0E080E09191913009F48F5F90E017
:1006A000EC3FF907C1F781709091FC00891721F4A4
:1006B00080914001886003C080914001877F8093D2
:1006C000400110923901EDEFF0E080E0919191301E
:1006D00009F48F5F91E0E331F907C1F781709091E0
:1006E0001301891721F480914001806203C0809139
:1006F00040018F7D809340018091400184FFE3C0E1
:100700008091400183FFDFC08091400185FFDBC005
:1007100080913A018093330180913B0180933401B1
:1007200080913D018093360180913C018093350199
:1007300080913E018093370180913F018093380181
:100740009091F100990F990F990F8091F000880F07
:10075000880F892B9091EE00892B4091EF00440F78
:10076000482B8091F40090E0880F991F880F991F03
:100770002091F30030E0220F331F822B932B209126
:10078000F200282B220F822F880F880F820F480F2C
:1007900040933A019091F900990F990F990F809128
:1007A000F800880F880F892B9091F600892B909183
:1007B000F700990F982B8091FB00880F2091FA0089
:1007C000822B880F282F220F220F280F920F909331
:1007D0003B0190910001990F990F990F8091FF00B3
:1007E000880F880F892B9091FD00892B9091FE0036
:1007F000990F982B80910201880F20910101822B83
:10080000880F282F220F220F280F920F90933D015F
:1008100090910501990F990F80910401880F892B00
:1008200090910301892B80933C0180910901880FED
:10083000880F880F90910801990F990F982B80913C
:100840000601982B80910701880F892B90910A014E
:10085000990F292F220F220F290F820F80933E011B
:1008600090910E01990F990F990F80910D01880FAA
:10087000880F892B90910B01892B40910C01440F1B
:10088000482B8091120190E0E3E0880F991FEA95D0
:10089000E1F72091110130E0220F331F220F331FA7
:1008A000822B932B20910F0130E0822B932B2091F0
:1008B0001001220F282B220F822F880F880F820F02
:1008C000480F40933F0150913B01583190F52091E2
:1008D0003A012C3370F540913D01403250F5909132
:1008E0003E019D3030F530913C01383010F580915B
:1008F0003F018436F0F4609134015617D1F45091E1
:1009000036014517B1F440913501341791F4309117
:100910003701931771F490913801891751F430E041
:100920008091330190E001962817390711F40E9455
:100930002A030895FC01808190E0062E02C095955F
:1009400087950A94E2F780FD2FC08FEF90E7A2E031
:1009500081509040A040E1F700C000008FEF90E789
:10096000A2E081509040A040E1F700C000008081EB
:1009700090E002C0959587956A95E2F780FF16C0D2
:100980008FEF90E7A2E081509040A040E1F700C0D7
:1009900000008FEF90E7A2E081509040A040E1F787
:1009A00000C0000081E0089580E0089580E008958F
:1009B0008091A4009091A500A091A600B091A700FD
:1009C0002091C0003091C1004091C2005091C300FD
:1009D000821B930BA40BB50B81342FE1920720E00F
:1009E000A20720E0B20720F01092BF000E94050885
:1009F0008091BF00823009F480C0833030F48823B6
:100A000059F0813009F028C134C08A3009F499C006
:100A10008F3F09F021C10BC18091A4009091A500E6
:100A2000A091A600B091A7008093C0009093C10050
:100A3000A093C200B093C30080E060E00E94F90779
:100A40000E94C101BC0184EC90E00E94090984EC81
:100A500090E00E94220880E061E00E94F9070E9475
:100A60004102BC0184EC90E00E94090984EC90E012
:100A70004AC080E060E00E94F9078AE690E00E94A8
:100A8000220889E390E060E00E949A048823A9F09C
:100A90000E9405088091A4009091A500A091A60055
:100AA000B091A7008093C0009093C100A093C200B2
:100AB000B093C30082E08093BF0089E390E061E0DF
:100AC0000E949A04882309F4C7C00E9405088091F7
:100AD000A4009091A500A091A600B091A7008093DA
:100AE000C0009093C100A093C200B093C3001092C5
:100AF000D3001092D8008AE097C080E060E00E94A6
:100B0000F90783E790E00E94220889E390E060E023
:100B10000E949A04882309F49FC00E9405088091CE
:100B2000A4009091A500A091A600B091A700809389
:100B3000C0009093C100A093C200B093C30081E0B5
:100B400073C080E060E00E94F9078CE790E00E94AB
:100B5000220880E061E00E94F9078091D80090E0CF
:100B60006AE171E04AE050E00E9420098AE191E0E8
:100B70000E94220889E390E061E00E949A048823A1
:100B8000B9F00E9405088091A4009091A500A09161
:100B9000A600B091A7008093C0009093C100A093DD
:100BA000C200B093C3008091D8008F5F8093D800BB
:100BB00089E390E062E00E949A048823B9F00E94E1
:100BC00005088091A4009091A500A091A600B09185
:100BD000A7008093C0009093C100A093C200B0937F
:100BE000C3008091D80081508093D80089E390E0C1
:100BF00060E00E949A04882379F10E9405088091A0
:100C0000A4009091A500A091A600B091A7008093A8
:100C1000C0009093C100A093C200B093C30080E0D5
:100C200060E00E94F9078FEF8093BF00089580E095
:100C300060E00E94F90784E890E00E9422088FEFAC
:100C400093EDA0E381509040A040E1F700C0000088
:100C50000E9405081092BF000895CF938AB3887F41
:100C60008ABB8BB387608BBBBF9AC79A8FEF93ED1C
:100C7000A0E381509040A040E1F700C00000C79879
:100C80008B9882B3887082BB8C9A949A8FEF93ED85
:100C9000A0E381509040A040E1F700C0000094988C
:100CA0008CE00E943C0884E990E00E9422088FEFCB
:100CB00093EDA0E381509040A040E1F700C0000018
:100CC0000E9405088BB780688BBF85B78C6085BF95
:100CD00085B5886085BD85B5846085BD89EF83BD98
:100CE00089B7806889BF0E9470088FEF99E6A8E1F4
:100CF00081509040A040E1F700C0000080ED0E94CC
:100D0000920880E00E94B90881ED0E94B0080E941C
:100D1000CD08C82F87FF0AC080ED0E94920880E0AE
:100D20000E94B9088C2F8F770E94B9080E94B308DF
:100D30007894809140018D7F809340019091400193
:100D400096959170809140018E7F892B8093400110
:100D5000C1E08091400181FF8AC08BB78F778BBF44
:100D60008091A4009091A500A091A600B091A70049
:100D70002091410130914201409143015091440141
:100D8000821B930BA40BB50B8B3F9105A105B105FD
:100D900008F060C08091A4009091A500A091A600E9
:100DA000B091A700209116013091170140911801D0
:100DB00050911901821B930BA40BB50B8B3091053D
:100DC000A105B10508F453C0839B1DC08091A80004
:100DD0008F5F8093A800C79A8091A4009091A5008E
:100DE000A091A600B091A7008093160190931701DF
:100DF000A0931801B09319018091400180FF37C082
:100E00000E942F0321C08091A4009091A500A09181
:100E1000A600B091A7008093D4009093D500A09332
:100E2000D600B093D7008091A4009091A500A09126
:100E3000A600B091A7008093160190931701A0938C
:100E40001801B0931901C798809140018E7F80935B
:100E500040010DC0809140018D7F809340018091C1
:100E600040018460809340018BB780688BBF809184
:100E7000A4009091A500A091A600B091A700209198
:100E8000D4003091D5004091D6005091D700821BFC
:100E9000930BA40BB50B893E23E0920720E0A20739
:100EA00020E0B20738F080914001816080934001DA
:100EB000109215018091400182FF35C08091400160
:100EC00080FD31C08FE060E00E94F9078091A800AA
:100ED0008F3080F480E690E00E9422088091150116
:100EE000E82FFF27E7FDF095E752FF4F10828F5F55
:100EF000809315018091A8008F3080F081EA90E006
:100F00000E94220880911501E82FFF27E7FDF09548
:100F1000E752FF4FC0838F5F80931501809140019E
:100F20008B7F809340010E94D80413CF009711F467
:100F300000C008950197F1F70895C69A00C0C698B9
:100F400008951F93DF93CF930F92CDB7DEB766233B
:100F500011F0C49A01C0C498C59897B39F6097BB1D
:100F600018B3107F982F92959F70912B98BB89830F
:100F70000E949D0789818F70812B88BB0E949D07ED
:100F80001F6018BB0F90CF91DF911F910895C498F7
:100F9000C59A87B3807F87BBC69A00C086B3C698C0
:100FA00000C0C69A00C096B39F708295807FC69895
:100FB000892B08950E94C70787FDFCCF84E090E04D
:100FC0000E9496070E94C7070895CF93C82F0E94DA
:100FD000DA078C2F60E00E94A107CF910895CF938C
:100FE000C82F0E94DA078C2F61E00E94A107CF91E1
:100FF0000895662311F4805801C080540E94E507CB
:1010000008950E94DA0790E0089581E00E94E507C4
:10101000089582E00E94E5070895CF93C82F0E94AB
:10102000DA07CA3049F4803410F480E401C080E06B
:1010300080580E94E50704C08C2F61E00E94A10740
:10104000CF910895CF93DF93EC0102C00E940D0869
:1010500089918823D9F7DF91CF910895CF93DF93BA
:10106000EC0102C00E940D08FE01219684918823A4
:10107000C9F7DF91CF910895CF93C82F87B38F67BA
:1010800087BB80E09DE70E949607C19AC09A0E94A4
:101090009D0780E097E20E9496070E949D0780E8E6
:1010A00090E00E9496070E949D0780E890E00E94D1
:1010B0009607C0980E949D0780E890E00E949607DE
:1010C00088E20E94E50788E00E94E5070E94050883
:1010D00086E00E94E5078C2F0E94E507CF910895D6
:1010E00011B888E480B9089594EA96BF06B607FE61
:1010F000FDCF91B1987F983011F0903179F483B998
:1011000084E886BF06B607FEFDCF91B1987F98317F
:1011100039F081E0903429F480E0089581E0089569
:1011200080E0089544EA34E824E946BF06B607FEA5
:10113000FDCF91B1987F983011F09031B1F783B91C
:1011400036BF06B607FEFDCF91B1987F903211F001
:10115000983529F426BF06B604FCFDCFE6CF0895E6
:101160000E947408089584E986BF06B604FCFDCF8A
:10117000089583B984E886BF06B607FEFDCF91B116
:10118000987F81E0983209F480E0089584EC86BF6E
:1011900006B607FEFDCF83B1089584E886BF06B684
:1011A00007FEFDCF83B10895991B79E004C0991F14
:1011B000961708F0961B881F7A95C9F780950895B1
:1011C000FC0188279927E89421912032E9F32930FE
:1011D00010F02E30C8F32B3241F02D3239F46894E0
:1011E00004C00E944109820F911D219120532A3091
:1011F000C0F31EF4909581959F4F0895FB01DC018B
:101200000D900020E9F7119701900D920020E1F771
:101210000895FB01DC0101900D920020E1F7089593
:10122000FB01DC010D900020E9F71197415050407F
:1012300028F0019000200D92C9F708951C9208959E
:10124000FB019F01E8944230C4F04532B4F44A30C7
:1012500029F497FB1EF4909581959F4F642F772773
:101260000E945909805D8A330CF0895D8193CB011E
:101270000097A1F716F45DE251931082C9010C9416
:1012800049097AE0979F902D879F802D910D112419
:101290000895DC01FC01672F71917723E1F7329704
:1012A00004C07C916D9370836291AE17BF07C8F341
:1012B0000895AA1BBB1B51E107C0AA1FBB1FA6179D
:1012C000B70710F0A61BB70B881F991F5A95A9F7EF
:0E12D00080959095BC01CD010895F894FFCF54
:1012DE0030003A002E002E323000536574205469CF
:1012EE006D65004D656E7520456E64005374756EA8
:1012FE0064653A006E6F7420696D706C656D656E15
:10130E007465640046756E6B7568722076312E308A
:04131E00003100009A
:00000001FF
